S012000044494F5F73696D706C652E737265634D
S11300000C942A000C9434000C9434000C943400A6
S11300100C9434000C9434000C9434000C9434008C
S11300200C9434000C9434000C9434000C9434007C
S11300300C9434000C9434000C9434000C9434006C
S11300400C9434000C9434000C9434000C9434005C
S11300500C94340011241FBECFE5D8E0DEBFCDBF21
S11300600E9436000C9450000C940000B898D19A69
S1130070B19B0EC08FED9EE20197F1F700C0000026
S1130080D99A8FE39CE90197F1F700C00000F0CF03
S1130090DB988FE39CE90197F1F700C00000E8CFFB
S10700A0F894FFCFFE
S9030000FC
