S020000044696F5F4C6179657265645F4172636869746563747572652E7372656381
S11300000C942A000C943F000C943F000C943F0085
S11300100C943F000C943F000C943F000C943F0060
S11300200C943F000C943F000C943F000C943F0050
S11300300C943F000C943F000C943F000C943F0040
S11300400C943F000C943F000C943F000C943F0030
S11300500C943F0011241FBECFE5D8E0DEBFCDBF16
S113006010E0A0E6B0E0E8EAF2E002C005900D92EC
S1130070A03AB107D9F70E9442010C9452010C94A2
S11300800000982F9770869586958695813021F18A
S113009030F08230F1F1833009F458C008956130B2
S11300A069F44BB321E030E0B90102C0660F771F59
S11300B09A95E2F7CB01842B8BBB08954BB321E0D7
S11300C030E0B90102C0660F771F9A95E2F7CB01C1
S11300D0809584238BBB0895613069F448B321E093
S11300E030E0B90102C0660F771F9A95E2F7CB01A1
S11300F0842B88BB089548B321E030E0B90102C0E5
S1130100660F771F9A95E2F7CB018095842388BB0D
S11301100895613069F445B321E030E0B90102C0CB
S1130120660F771F9A95E2F7CB01842B85BB089560
S113013045B321E030E0B90102C0660F771F9A95FC
S1130140E2F7CB018095842385BB0895613069F47F
S113015042B321E030E0B90102C0660F771F9A95DF
S1130160E2F7CB01842B82BB089542B321E030E057
S1130170B90102C0660F771F9A95E2F7CB0180950B
S1130180842382BB0895E0E6F0E080E041E050E0A3
S1130190982F969596959695382F37702081213013
S11301A0A1F5913089F028F09230C9F0933011F123
S11301B063C09AB3BA0102C0660F771F3A95E2F79B
S11301C09B01292B2ABB58C097B3BA0102C0660F02
S11301D0771F3A95E2F79B01292B27BB4DC094B3B7
S11301E0BA0102C0660F771F3A95E2F79B01292BEB
S11301F024BB42C091B3BA0102C0660F771F3A957F
S1130200E2F79B01292B21BB37C0913091F028F0F4
S11302109230D9F0933029F12FC02AB3BA0102C029
S1130220660F771F3A95E2F7962F909592239ABB23
S113023023C027B3BA0102C0660F771F3A95E2F7CD
S1130240962F9095922397BB17C024B3BA0102C08E
S1130250660F771F3A95E2F7962F9095922394BBF9
S11302600BC021B3BA0102C0660F771F3A95E2F7BB
S1130270962F9095922391BB8F5F3296803209F02E
S113028087CF08950E94C30061E083E00E9441008B
S11302902FEF81EE94E0215080409040E1F700C0C0
S10B02A00000F2CFF894FFCF37
S11302A8010001000100010001000100010001003A
S11302B8010001000100010001000100010001002A
S11302C8010001000100010001000100010001001A
S11302D8010001000100010001000100010001000A
S9030000FC
