:100000000C942A000C9434000C9434000C943400AA
:100010000C9434000C9434000C9434000C94340090
:100020000C9434000C9434000C9434000C94340080
:100030000C9434000C9434000C9434000C94340070
:100040000C9434000C9434000C9434000C94340060
:100050000C94340011241FBECFE5D8E0DEBFCDBF25
:100060000E9436000C9482000C940000B898BC9852
:100070008A98A29AA79A8B9AB09B0EC08FED9EE2A7
:100080000197F1F700C00000AA9A8FE39CE901975D
:10009000F1F700C0000007C0AA988FE39CE9019720
:1000A000F1F700C00000B49B0EC08FED9EE20197F7
:1000B000F1F700C00000AF9A8FE39CE90197F1F7D8
:1000C00000C0000007C0AF988FE39CE90197F1F7EB
:1000D00000C00000829B0EC08FED9EE20197F1F7F9
:1000E00000C00000939A8FE39CE90197F1F700C0EC
:1000F0000000C2CF93988FE39CE90197F1F700C00D
:080100000000BACFF894FFCF14
:00000001FF
